:100000000C9477000C949F000C949F000C94760540
:100010000C9476050C9476050C949F000C949F002C
:100020000C949F000C949F000C949F000C94EB0682
:100030000C949F000C949F000C949F000C949F00C4
:100040000C94EE050C949F000C945E060C943806FC
:100050000C949F000C9490060C949F000C949F00AD
:100060000C949F000C949F0007634236B79BD8A75F
:100070001A39685618AEBAAB558C1D3CB7CC5763CD
:10008000BD6DEDFD753EF6177231BF000000803F7B
:100090000000000800020100000304070000000047
:1000A00000000000000000002300260029000000DE
:1000B0000000240027002A0000000000250028007E
:1000C0002B000404040404040404020202020202D9
:1000D000030303030303010204081020408001020C
:1000E00004081020010204081020FB07E10C112471
:1000F0001FBECFEFD8E0DEBFCDBF13E0A0E0B1E080
:10010000E6E8F5E202C005900D92AC3EB107D9F7E2
:1001100025E0ACEEB3E001C01D92A43DB207E1F7CB
:1001200010E0C6E7D0E004C02197FE010E94CB0E8C
:10013000C537D107C9F70E946F090C94B6120C9409
:10014000000020917004309171042817390771F470
:1001500090916F0480916E04981741F0E0916F04C4
:10016000F0E0E25DFB4F808190E008958FEF9FEF1C
:1001700008950895EF92FF920F931F93CF93DF930B
:10018000DC015C96ED90FC905D97E114F10479F44C
:1001900081E090E013969C938E93129790E080E01C
:1001A000DF91CF911F910F91FF90EF90089551969D
:1001B000ED91FC91529750968C915097982F909575
:1001C0000FB75E962C915E97122F127021FD6095ED
:1001D000F8942081112319F1282B2083E70121971E
:1001E000F1F728E0462F50E0308160FF1AC0382B2D
:1001F0003083E7012197F1F7BA0175956795215092
:1002000089F7112381F08081892380830FBF5C9659
:100210008D919C910197F1F781E090E0C1CF292366
:10022000DCCF3923E5CF9081892BEFCF209170046B
:10023000309171042817390761F480916E04209180
:100240006F0490E0805C9F4F821B91098F73992708
:10025000089590E080E00895209170043091710439
:1002600028173907B9F490916F0480916E0498179C
:1002700089F0E0916F04F0E0E25DFB4F8081209116
:100280006F0430E02F5F3F4F2F73332720936F04AD
:1002900090E008958FEF9FEF089590E0FC01E05704
:1002A000FF4F2491FC01EA52FF4F3491FC01EE53C1
:1002B000FF4FE491EE23C9F0222339F0233001F1FE
:1002C000A8F4213019F1223029F1F0E0EE0FFF1FE0
:1002D000E854FF4FA591B4918FB7F894EC91611158
:1002E00026C030953E233C938FBF08952730A9F058
:1002F0002830C9F0243049F7809180008F7D03C0F9
:10030000809180008F7780938000DFCF84B58F77D6
:1003100084BDDBCF84B58F7DFBCF8091B0008F771C
:100320008093B000D2CF8091B0008F7DF9CF3E2B6B
:10033000DACF3FB7F89480912A0490912B04A091D2
:100340002C04B0912D0426B5A89B05C02F3F19F0B1
:100350000196A11DB11D3FBFBA2FA92F982F882745
:10036000BC01CD01620F711D811D911D42E0660F20
:10037000771F881F991F4A95D1F708958F929F92F2
:10038000AF92BF92CF92DF92EF92FF926B017C010E
:100390000E9499014B015C01C114D104E104F104F4
:1003A000B9F00E949901681979098A099B09683E88
:1003B00073408105910580F321E0C21AD108E1085C
:1003C000F10888EE880E83E0981EA11CB11CE4CFD2
:1003D000FF90EF90DF90CF90BF90AF909F908F9065
:1003E0000895AF92BF92CF92DF92EF92FF920F9358
:1003F0001F93CF93DF936C017B018B01040F151FBB
:10040000EB015E01AE18BF08C017D10759F0699122
:10041000D601ED91FC910190F081E02DC601099586
:10042000892B79F7C501DF91CF911F910F91FF9033
:10043000EF90DF90CF90BF90AF90089590E080E074
:100440000895FC01538D448D252F30E0842F90E0DA
:10045000821B930B541710F0CF96089501970895BF
:10046000FC01918D828D981761F0A28DAE0FBF2F88
:10047000B11D5D968C91928D9F5F9F73928F90E0DE
:1004800008958FEF9FEF0895FC01918D828D98174D
:1004900031F0828DE80FF11D858D90E008958FEF8A
:1004A0009FEF0895FC01918D228D892F90E0805C53
:1004B0009F4F821B91098F73992708958DE894E0CF
:1004C0000E94520221E0892B09F420E0822F089536
:1004D00080E090E0892B29F00E945E0281110C944B
:1004E00000000895FC01A48DA80FB92FB11DA35AD7
:1004F000BF4F2C91848D90E001968F739927848F44
:10050000A689B7892C93A089B1898C918370806466
:100510008C93938D848D981306C00288F389E02D07
:1005200080818F7D80830895EF92FF920F931F93B8
:10053000CF93DF93EC0181E0888F9B8D8C8D981396
:100540001AC0E889F989808185FF15C09FB7F894A2
:10055000EE89FF896083E889F989808183708064EE
:1005600080839FBF81E090E0DF91CF911F910F9139
:10057000FF90EF900895F62E0B8D10E00F5F1F4F48
:100580000F731127E02E8C8D8E110CC00FB607FC57
:10059000FACFE889F989808185FFF5CFCE010E94E5
:1005A0007202F1CFEB8DEC0FFD2FF11DE35AFF4FDF
:1005B000F0829FB7F8940B8FEA89FB898081806273
:1005C000CFCFCF93DF93EC01888D8823B9F0AA8930
:1005D000BB89E889F9898C9185FD03C0808186FDFE
:1005E0000DC00FB607FCF7CF8C9185FFF2CF80814D
:1005F00085FFEDCFCE010E947202E9CFDF91CF914E
:100600000895909180049923E9F08E5020917E0402
:1006100030E02F5F3F4F2770332790917F04921770
:1006200041F0E0917E04F0E0EA58FB4F8083209394
:100630007E04E82FF0E0EE0FFF1FE051FC4F8081B9
:100640009181089590E080E00895FC0142895389EA
:100650006DE4649F9001659F300D1124295C3F4F2C
:10066000338B228B832F0895CF92DF92EF92FF92EC
:100670000F931F93CF93DF93EC016A017B0120E07E
:1006800030E0A901CB01B6010E940D0D882309F4C9
:100690004BC0CC82DD82EE82FF820A811B8120E08A
:1006A00030E040E85FE46C817D818E819F810E9413
:1006B000730D6B017C01B8017695679590E080E041
:1006C0000E94120D9B01AC01C701B6010E94D20E1F
:1006D0006B017C01B80190E080E00E94120D9B014B
:1006E000AC01C701B6010E943E0F0E94EA0F6E875F
:1006F0007F87888B998B8E859F85A889B989892B5F
:100700008A2B8B2B41F481E090E0A0E0B0E08E8753
:100710009F87A88BB98BDF91CF911F910F91FF908D
:10072000EF90DF90CF90089580E090E0A0E8BFE3E5
:100730008C839D83AE83BF83B0CFCF93DF93EC01D7
:1007400090E080E00E94120DAB01BC01CE010E943E
:1007500034031A8A1B8A1C8A1D8ADF91CF9108955F
:10076000FC01468557856089718982859385A485BA
:10077000B585840F951FA61FB71F82879387A4870F
:10078000B58782859385A485B5858B2F08950F93B2
:100790001F93CF93DF93EC010E94B0030A851B8562
:1007A0002C853D8581E04A895B896C897D890417A8
:1007B00015072607370708F080E08195DF91CF9174
:1007C0001F910F910895CF93DF93EC010E94B00326
:1007D0008A859B85AC85BD858F3F9F4FAF4FBF47B7
:1007E00080F48A859B85AC85BD85880F991FAA1FDB
:1007F000BB1F8A8B9B8BAC8BBD8B8D89DF91CF917F
:1008000008958A859B85AC85BD8580959095A0953A
:10081000B095EBCFCF93DF93EC010E94B0038A85B4
:100820009B85AC85BD8580959095A095B0958B2FC7
:10083000DF91CF9108950E94B00391E08F3F09F0BE
:1008400090E0892F08958F929F92AF92BF92EF927E
:10085000FF921F93CF93DF9380918004882339F117
:100860008091010187FF23C090917F0480917E04D5
:100870009817E9F0E0917F04F0E0EA58FB4F80819F
:100880008093010180917F0490E001968770992701
:1008900080937F04109275048091010187708064B9
:1008A00080937C0080917A00806480937A008EE04F
:1008B0000E940103EC0190938C0480938B048FE0E1
:1008C0000E9401037C0190938A048093890480E153
:1008D0000E940103909388048093870481E10E9421
:1008E0000103909386048093850482E10E940103B2
:1008F000909384048093830483E10E940103909386
:100900008204809381049E01A3E6B0E00E94BC0EA5
:1009100088248A9433E0932EA12CB12CA501940154
:100920000E94310E14E1129FB001139F700D11242B
:100930006C5E7F4F90E080E00E94120DAB01BC0125
:100940008EEB95E00E943403C0917304D09174043F
:100950009701A3E6B0E00E94BC0EA50194010E949D
:10096000310E129FB001139F700D11246C5E7F4FEA
:1009700090E080E00E94120DAB01BC01E881F9819A
:100980000190F081E02DCE0109958091870490912E
:1009900088048F3F910511F008F061C086E995E069
:1009A0009093740480937304E0917304F091740441
:1009B00080E090E4938382839093C1058093C00587
:1009C000C0918304D09184042091850430918604E1
:1009D000AFE7B0E00E94BC0E88248A9423E0922EF8
:1009E000A12CB12CA50194010E94310E2093720418
:1009F0009E01AFE7B0E00E94BC0EA50194010E94E9
:100A0000310E20930001609181047091820490E086
:100A100080E00E94120D22EB30E54DE250E40E948E
:100A2000730D20E030EC4FE754E40E943E0F21EDBF
:100A30003BE849EA50E40E94D20E0E94B80F0E949F
:100A4000EA0F70934B0560934A05DF91CF911F9198
:100A5000FF90EF90BF90AF909F908F900895811579
:100A600022E0920730F08115934030F08CE695E05B
:100A700097CF80E895E094CF88EA95E091CFFB018D
:100A800001900020E9F73197AF01461B570BDC01BD
:100A9000ED91FC910280F381E02D09940F931F9357
:100AA000CF93DF93EC0188819981009759F02A81D7
:100AB0003B812617370730F081E0DF91CF911F91FE
:100AC0000F9108958B016F5F7F4F0E94E91100978E
:100AD00059F0998388831B830A832C813D81232BC2
:100AE00059F7FC011082E8CF80E0E7CF1F920F9208
:100AF0000FB60F9211242F933F934F935F936F93F1
:100B00007F938F939F93AF93BF93EF93FF93E09166
:100B10007004F0917104309749F0A685B7858585FA
:100B2000968D91FF14C09C918923A1F4FF91EF91C0
:100B3000BF91AF919F918F917F916F915F914F91F5
:100B40003F912F910F900FBE0F901F9018959C9181
:100B5000892361F7A389B4899C918589809589232C
:100B60008C93868997890197F1F7608D718DA685A1
:100B7000B785558538E020E0CB010197F1F7822F4A
:100B800090E095958795282F4C91452309F0206892
:100B9000315091F7868D81FD209580916E0490E013
:100BA00001968F73992730916F04381799F0A091AF
:100BB0006E04B0E0A25DBB4F2C9380936E04828DD7
:100BC000938D0197F1F7A389B4898C919589892B2D
:100BD0008C93ACCF868D8160868FF1CF1F920F9260
:100BE0000FB60F9211242F933F938F939F93AF9340
:100BF000BF938091260490912704A0912804B0917E
:100C000029043091250423E0230F2D3758F5019650
:100C1000A11DB11D209325048093260490932704E1
:100C2000A0932804B093290480912A0490912B0466
:100C3000A0912C04B0912D040196A11DB11D8093AB
:100C40002A0490932B04A0932C04B0932D04BF91FD
:100C5000AF919F918F913F912F910F900FBE0F9069
:100C60001F90189526E8230F0296A11DB11DD2CF23
:100C70001F920F920FB60F9211242F933F934F9311
:100C80005F936F937F938F939F93AF93BF93EF93F4
:100C9000FF938DE894E00E947202FF91EF91BF9163
:100CA000AF919F918F917F916F915F914F913F9104
:100CB0002F910F900FBE0F901F9018951F920F92BB
:100CC0000FB60F9211242F938F939F93EF93FF935F
:100CD000E0919D04F0919E048081E091A304F09145
:100CE000A40482FD1BC090818091A6048F5F8F7346
:100CF0002091A704821741F0E091A604F0E0E357A9
:100D0000FB4F958F8093A604FF91EF919F918F9158
:100D10002F910F900FBE0F901F9018958081F4CFE8
:100D20001F920F920FB60F9211248F939F93EF9300
:100D3000FF938091010187FD06C08091750488238F
:100D400059F0813091F0FF91EF919F918F910F9029
:100D50000FBE0F901F90189580917A008064809349
:100D60007A0081E080937504EECFE09101018091DB
:100D7000780090917900EE0FFF0BE051FC4F9183CA
:100D8000808390917F0480917E049817F1F0E09128
:100D90007F04F0E0EA58FB4F80818093010180914D
:100DA0007F0490E001968770992780937F041092CA
:100DB0007504809101018770806480937C0080912C
:100DC0007A00806480937A00BECF8FEF8093010118
:100DD00010927504B8CF1F920F920FB60F92112484
:100DE000CF92DF92EF92FF922F933F934F935F93B7
:100DF0006F937F938F939F93AF93BF93CF93DF9323
:100E0000EF93FF938EEB95E00E941B04A091730477
:100E1000B0917404813009F087C08091EF03880F8E
:100E20008093EF03ED91FC9111970280F381E02D07
:100E3000CD01099590E0880F892F881F990B809329
:100E4000EE039091ED038091EE0389278093EE03EA
:100E50009091EE038091EF03892B8093EF038091B3
:100E6000EF0390E0880F892F881F990B8093ED0383
:100E70008091EF0390E044E0959587954A95E1F7DE
:100E800080930404A091EF0320917204C22ED12C10
:100E9000F12CE12CC091EC03D0E0CC0FDD1FCB5F37
:100EA000DB4F2091000130E050E040E02C193D097B
:100EB0004E095F09B0E0B595A7950E945B0E2FEF34
:100EC00030E040E050E00E94310EC20ED31EE41E1E
:100ED000F51EEC2DF0E0EE0FFF1FE05FFE4F80816E
:100EE0009181998388838091EC038F5F8093EC03D9
:100EF0008091EC038F708093EC03FF91EF91DF9171
:100F0000CF91BF91AF919F918F917F916F915F91A1
:100F10004F913F912F91FF90EF90DF90CF900F90E6
:100F20000FBE0F901F901895ED91FC9111970280C4
:100F3000F381E02DCD010995E0CFFC018CE091E03B
:100F40009183808380E090E49383828380E090E0CB
:100F5000ACEDB3E484839583A683B7838FEF90E0F1
:100F60009187808781E090E0A0E0B0E08687978756
:100F7000A08BB18B12861386148615860895EF9286
:100F8000FF920F931F93CF93DF93EC017B011982A4
:100F900018821B821A821D821C82FB010190002094
:100FA000E9F731978F01061B170BB8010E944E0518
:100FB00028813981811113C02115310519F0C9012A
:100FC0000E946011198218821D821C821B821A8263
:100FD000DF91CF911F910F91FF90EF9008951D83A6
:100FE0000C83B701C901DF91CF911F910F91FF9041
:100FF000EF900C94AF12CF92DF92EF92FF920F938B
:101000001F93CF93DF931092900410928F04E8EE19
:10101000CE2EE3E0DE2EE12CF12CC0929104D09292
:101020009204E0929304F092940484E192E090930D
:101030008E0480938D0485EC90E090939A048093C5
:10104000990484EC90E090939C0480939B0480EC42
:1010500090E090939E0480939D0481EC90E09093A7
:10106000A00480939F0482EC90E09093A20480936C
:10107000A10486EC90E09093A4048093A3041092C2
:10108000A6041092A7041092A8041092A9048EEB53
:1010900095E00E949D078AE592E09093BF058093BA
:1010A000BE0588EA95E00E949D0782E592E0909354
:1010B000A9058093A8058FEF9FEFAFEFBFE780935F
:1010C000BA059093BB05A093BC05B093BD0586E916
:1010D00095E00E949D078AE492E0909397058093A3
:1010E000960580E895E00E949D0780E492E0909349
:1010F0008105809380058CE695E00E949D0788E33A
:1011000092E090936D0580936C0581E090E0909360
:101110007F0580937E0582E08093380583E080938D
:1011200039051092500510924F05C0925105D0928A
:101130005205E0925305F092540586E292E09093B6
:101140004E0580934D051092640510926305109230
:101150006605109265051092680510926705109259
:101160006A051092690560916B056E7F6D7F6093D3
:101170006B056695617081E0682783E00E944D01F0
:1011800049ED50E0FA01649185EC90E0FC01249176
:10119000222399F030E0220F331FF901E255FF4F6F
:1011A000A591B491F901E854FF4F259134912FB7DF
:1011B000F8943C91632B6C932FBFFA0144914093B8
:1011C0005D05FC018491E82FF0E0EE0FFF1FE8546D
:1011D000FF4F8591949190935F0580935E0508ED94
:1011E00010E0F8012491C4ECD0E0FE018491882342
:1011F000C9F090E0880F991FFC01E255FF4FA591BF
:10120000B491FC01E854FF4F459154913FB7F894D5
:101210009C91822F809598239C93FA019081892339
:1012200080833FBF80916B0581FD04C061E082E057
:101230000E944D0182E080935905F80104910093CA
:101240005A05FE01C491EC2FF0E0EE0FFF1FEC55A4
:10125000FF4F8591949190935C0580935B0510926C
:101260003B0510923A0510923D0510923C051092F4
:1012700046051092470510924805109249051092B4
:101280003E0510923F0510924005109241051092C4
:1012900042051092430510924405109245051092A4
:1012A0004C05109237051092360588EC90E090932B
:1012B0004B0580934A056EE572E080E395E00E945D
:1012C000BF0764E872E08AE295E0DF91CF911F9159
:1012D0000F91FF90EF90DF90CF900C94BF07CF93CA
:1012E000DF93CDB7DEB7A0970FB6F894DEBF0FBE81
:1012F000CDBF789484B5826084BD84B5816084BD9F
:1013000085B5826085BD85B5816085BD80916E00A3
:10131000816080936E0010928100809181008260D4
:101320008093810080918100816080938100809111
:1013300080008160809380008091B1008460809300
:10134000B1008091B00081608093B00080917A00FC
:10135000846080937A0080917A00826080937A0022
:1013600080917A00816080937A0080917A00806811
:1013700080937A001092C100E0919D04F0919E0448
:1013800082E08083E0919904F0919A041082E091C8
:101390009B04F0919C048FEC80831092A504E09153
:1013A000A104F091A20486E08083E0919F04F09173
:1013B000A004808180618083E0919F04F091A0046B
:1013C000808188608083E0919F04F091A0048081F7
:1013D00080688083E0919F04F091A00480818F7DDC
:1013E000808368EE73E080E090E00E94BE0110927E
:1013F00068051092670510926605109265051092B7
:101400006405109263058DE991E090936A058093DD
:10141000690590915905963108F047C02DEB30E0F1
:1014200030936405209363052BE931E03093660522
:10143000209365052CE231E0309368052093670521
:101440002091680084E0983048F031E09E3008F444
:1014500030E081E001C0880F3A95EAF7822B809353
:1014600068002DE630E0983050F02BE630E09E30FA
:1014700030F02CE630E0963110F030E020E0309390
:10148000610520936005292F30E0983008F0A3C152
:1014900081E001C0880F9A95EAF7809362058091F8
:1014A000690590916A050197F1F780916705909120
:1014B0006805892B49F1E0917004F091710425E0F1
:1014C000ED34F20709F1309739F0A389B4899C9182
:1014D0008589809589238C9380916B058E7F80937D
:1014E0006B0510926E0410926F048DE495E090935A
:1014F000710480937004E0916005F0916105808132
:1015000090916205892B808380E895E09093740424
:101510008093730480E090E4909383058093820528
:101520009093C1058093C00580918004811144C0CF
:1015300010927F0410927E048FEF8093010110922D
:10154000750490E080E0FC01EE0FFF1FE051FC4FBE
:1015500011821082FC01EA58FB4F108201968830FC
:10156000910589F780917A008B7F80937A00809132
:101570007A00826080937A0080917A008160809303
:101580007A0080917A00886080937A0090E080E011
:1015900061E070E020917E00AB01082E01C0440F95
:1015A0000A94EAF7242B20937E0001968830910557
:1015B00089F781E0809380040E942304F8941092BC
:1015C0008000109281008FEC93E0909389008093CB
:1015D00088008091810088608093810080918100E3
:1015E00081608093810080916F00826080936F00A2
:1015F000789480E395E090933B0580933A05809141
:10160000360590913705892B31F481E090E0909375
:1016100037058093360568E672E08DE894E00E9415
:101620003F0562E872E08DE894E00E943F0561E0CA
:1016300089E00E944D0168EE73E080E090E00E9436
:10164000BE0160E089E00E944D0168EE73E080E039
:1016500090E00E94BE0122242394312C93E0492E75
:10166000512C22E0822E912C8FB7F894C090260442
:10167000D0902704E0902804F09029048FBF809137
:101680003605909137058230910509F40DC18330FC
:10169000910509F4ADC0019741F5E0913A05F0914B
:1016A0003B05309741F044815581608171818DE423
:1016B00095E00E94F10165E872E08DE495E00E94FA
:1016C0003F05C0923E05D0923F05E0924005F09262
:1016D0004105C0924205D0924305E0924405F09244
:1016E0004505909237058092360580913605909198
:1016F0003705892B09F027C1F89480E2E5E0F4E092
:10170000DE01119601900D928A95E1F78091040413
:101710008091040410E1813110F41091040470E010
:1017200060E08AE295E00E944E0520912A05309102
:101730002B058111DFC02115310519F0C9010E9467
:10174000601110922B0510922A0510922F0510920D
:101750002E0510922D0510922C05AE014F5F5F4FA4
:101760003A01B12CA12CE12EF12C40912E05509183
:101770002F05AE14BF040CF0C7C0F301C190D19087
:101780003F01C114D10419F1F60101900020E9F7DD
:101790003197EC19FD09D9F08F01040F151FB8011D
:1017A0008AE295E00E944E05882389F020912A055F
:1017B00030912B0580912E0590912F05B601820F57
:1017C000931F0E94AF1210932F0500932E05FFEF79
:1017D000AF1ABF0ACACF9E3040F42850310981E0C9
:1017E00001C0880F2A95EAF758CE2E503109F7CF5D
:1017F0008091460590914705A0914805B091490513
:10180000A7019601281B390B4A0B5B0BDA01C901B2
:101810004097A105B10508F496C08DE495E00E94BB
:101820001601181619069CF58DE495E00E942C010E
:10183000182F682F8DE894E00E94940262E872E00D
:101840008DE894E00E943F051E3309F5109237059C
:1018500010923605C0924605D0924705E0924805A1
:10186000F092490580914C058F5F80934C0585303F
:1018700008F43BCF67E872E08DE495E00E943F05F5
:10188000109237051092360510924C052ECF90928B
:10189000370580923605C0924205D0924305E0920A
:1018A0004405F0924505D6CF8091420590914305BD
:1018B000A0914405B0914505B701A601481B590BFD
:1018C0006A0B7B0B80914A0590914B05B0E0A0E03C
:1018D000481759076A077B07B0F1509237054092C5
:1018E0003605C0924605D0924705E0924805F09231
:1018F0004905CACF10922F0510922E0564E872E0B8
:10190000C9010E94AF1229CF60912A0570912B0561
:101910008DE894E00E94F10162E872E08DE894E0C5
:101920000E943F058AE295E090933B0580933A053B
:101930008091360590913705892B21F43092370537
:101940002092360578942FB7F894809126049091D0
:101950002704A0912804B09129042FBF40910004CE
:10196000509101046091020470910304841B950B53
:10197000A60BB70B883C9105A105B105A8F00E9404
:1019800023042FB7F8948091260490912704A09106
:101990002804B09129042FBF809300049093010480
:1019A000A0930204B093030420E030E0232B09F459
:1019B0005BCE0E945E02882309F456CE0E9400008E
:1019C00053CE80912A0590912B05009711F00E942B
:1019D00060118091300590913105009711F00E94BF
:1019E000601186E292E090934E0580934D058091C0
:1019F0007004909171048D54954071F4E0916005EC
:101A0000F0916105908180916205809589238083A2
:101A1000109271041092700408950E944F0D08F402
:101A200081E00895E89409C097FB3EF49095809575
:101A3000709561957F4F8F4F9F4F9923A9F0F92F94
:101A400096E9BB279395F695879577956795B79512
:101A5000F111F8CFFAF4BB0F11F460FF1BC06F5FF8
:101A60007F4F8F4F9F4F16C0882311F096E911C00A
:101A7000772321F09EE8872F762F05C0662371F02B
:101A800096E8862F70E060E02AF09A95660F771F3F
:101A9000881FDAF7880F9695879597F90895990F1B
:101AA0000008550FAA0BE0E8FEEF16161706E80728
:101AB000F907C0F012161306E407F50798F0621B49
:101AC000730B840B950B39F40A2661F0232B242B1E
:101AD000252B21F408950A2609F4A140A6958FEF3D
:101AE000811D811D08950E94860D0C94F70D0E94A2
:101AF000E90D38F00E94F00D20F0952311F00C94C0
:101B0000E00D0C94E60D11240C942B0E0E94080E8F
:101B100070F3959FC1F3950F50E0551F629FF00140
:101B2000729FBB27F00DB11D639FAA27F00DB11D59
:101B3000AA1F649F6627B00DA11D661F829F2227E2
:101B4000B00DA11D621F739FB00DA11D621F839F69
:101B5000A00D611D221F749F3327A00D611D231F3F
:101B6000849F600D211D822F762F6A2F11249F578D
:101B700050409AF0F1F088234AF0EE0FFF1FBB1F90
:101B8000661F771F881F91505040A9F79E3F51054F
:101B900080F00C94E00D0C942B0E5F3FE4F3983E24
:101BA000D4F3869577956795B795F795E7959F5FF9
:101BB000C1F7FE2B880F911D9695879597F908958B
:101BC00097F99F6780E870E060E008959FEF80ECF0
:101BD000089500240A941616170618060906089593
:101BE00000240A9412161306140605060895092EF9
:101BF0000394000C11F4882352F0BB0F40F4BF2B68
:101C000011F460FF04C06F5F7F4F8F4F9F4F0895A7
:101C100057FD9058440F551F59F05F3F71F047959D
:101C2000880F97FB991F61F09F3F79F08795089582
:101C3000121613061406551FF2CF4695F1DF08C0A1
:101C4000161617061806991FF1CF869571056105BE
:101C500008940895E894BB2766277727CB0197F966
:101C60000895052E97FB1EF400940E94480E57FD20
:101C700007D00E949A0E07FC03D04EF40C94480E35
:101C800050954095309521953F4F4F4F5F4F0895A8
:101C900090958095709561957F4F8F4F9F4F0895D8
:101CA0000E94BC0EA59F900DB49F900DA49F800D27
:101CB000911D11240895B7FF0C94500E0E94500EF0
:101CC000821B930B08952F923F924F925F926F92D7
:101CD0007F928F929F92AF92BF92CF92DF92EF92BC
:101CE000FF920F931F93CF93DF93CDB7DEB7CA1B3D
:101CF000DB0B0FB6F894DEBF0FBECDBF09942A8868
:101D0000398848885F846E847D848C849B84AA840F
:101D1000B984C884DF80EE80FD800C811B81AA819C
:101D2000B981CE0FD11D0FB6F894DEBF0FBECDBF67
:101D3000ED010895A1E21A2EAA1BBB1BFD010DC0E7
:101D4000AA1FBB1FEE1FFF1FA217B307E407F5076B
:101D500020F0A21BB30BE40BF50B661F771F881F47
:101D6000991F1A9469F760957095809590959B01DD
:101D7000AC01BD01CF010895A29FB001B39FC00186
:101D8000A39F700D811D1124911DB29F700D811DA7
:101D90001124911D0895EE0FFF1F0590F491E02D81
:101DA00009945058BB27AA270E94E90E0C94F70DFE
:101DB0000E94E90D38F00E94F00D20F039F49F3FA9
:101DC00019F426F40C94E60D0EF4E095E7FB0C9460
:101DD000E00DE92F0E94080E58F3BA176207730747
:101DE0008407950720F079F4A6F50C942A0E0EF4DA
:101DF000E0950B2EBA2FA02D0B01B90190010C011B
:101E0000CA01A0011124FF27591B99F0593F50F432
:101E1000503E68F11A16F040A22F232F342F44278A
:101E2000585FF3CF469537952795A795F040539582
:101E3000C9F77EF41F16BA0B620B730B840BBAF052
:101E40009150A1F0FF0FBB1F661F771F881FC2F7BD
:101E50000EC0BA0F621F731F841F48F487957795D1
:101E60006795B795F7959E3F08F0B0CF9395880F8B
:101E700008F09927EE0F9795879508950E94520FC5
:101E80000C94F70D0E94F00D58F00E94E90D40F0FF
:101E900029F45F3F29F00C94E00D51110C942B0EA6
:101EA0000C94E60D0E94080E68F39923B1F35523B4
:101EB00091F3951B550BBB27AA276217730784075D
:101EC00038F09F5F5F4F220F331F441FAA1FA9F3F3
:101ED00035D00E2E3AF0E0E832D091505040E695E1
:101EE000001CCAF72BD0FE2F29D0660F771F881F42
:101EF000BB1F261737074807AB07B0E809F0BB0B35
:101F0000802DBF01FF2793585F4F3AF09E3F510548
:101F100078F00C94E00D0C942B0E5F3FE4F3983EA8
:101F2000D4F3869577956795B795F7959F5FC9F731
:101F3000880F911D9695879597F90895E1E0660FB2
:101F4000771F881FBB1F621773078407BA0720F02B
:101F5000621B730B840BBA0BEE1F88F7E095089594
:101F600029F416F00C94E00D0C942A0E0C94E60D56
:101F70000E94100EA8F39638A0F707F80F92E89485
:101F80002BE33AEA48EB5FE70E94890D0F920F922C
:101F90000F924DB75EB70F920E948210E8E6F0E014
:101FA0000E9419104F915F91EF91FF91E595EE1FFF
:101FB000FF1F49F0FE57E0684427EE0F441FFA95D3
:101FC000E1F74195550B0E944C100F9007FE0C94C1
:101FD000401008950E94100E88F09F5798F0B92F76
:101FE0009927B751B0F0E1F0660F771F881F991F4E
:101FF0001AF0BA95C9F714C0B13091F00E942A0EB8
:10200000B1E008950C942A0E672F782F8827B85FC7
:1020100039F0B93FCCF3869577956795B395D9F7A5
:102020003EF490958095709561957F4F8F4F9F4FAF
:102030000895DF93CF931F930F93FF92EF92DF9258
:102040007B018C01689406C0DA2EEF010E94860D98
:10205000FE01E894A5912591359145915591A6F3FE
:10206000EF010E94E90EFE019701A801DA9469F7D9
:10207000DF90EF90FF900F911F91CF91DF91089526
:102080009B01AC0160E070E080E89FE30C943E0FA0
:102090000C94E00D0C94B6100E94100ED8F3992306
:1020A000C9F3940F511DA3F39150504094F059F08F
:1020B000882332F0660F771F881F91505040C1F778
:1020C0009E3F51052CF7880F911D9695879597F99E
:1020D00008955F3FACF0983E9CF0BB2786957795BE
:1020E0006795B79508F4B1609395C1F7BB0F58F7A2
:1020F00011F460FFE8CF6F5F7F4F8F4F9F4FE3CFAB
:102100000C942B0EFA01DC01AA0FBB1F9B01AC0142
:10211000BF5728F4222733274427507820C0B751CF
:1021200090F4AB2F0024469537952795011CA39575
:10213000D2F3002071F0220F331F441FB395DAF35E
:102140000ED00C94D10E61307105A0E88A07B94613
:1021500030F49B01AC01662777278827907830966A
:1021600021F0208331834283538308959F3F31F0D0
:10217000915020F4879577956795B795880F911DB5
:102180009695879597F908950F931F93CF93DF93B3
:102190008230910510F482E090E0E091D205F09158
:1021A000D30530E020E0B0E0A0E0309799F42115AD
:1021B000310509F44AC0281B390B24303105D8F504
:1021C0008A819B816115710589F1FB01938382836B
:1021D000FE0111C0408151810281138148175907C6
:1021E000E0F04817590799F4109761F012960C9394
:1021F000129713961C933296CF01DF91CF911F91C6
:102200000F9108950093D2051093D305F4CF2115B3
:10221000310551F04217530738F0A901DB019A014B
:10222000BD01DF01F801C1CFEF01F9CF9093D305D4
:102230008093D205CDCFFE01E20FF31F81939193DE
:102240002250310939832883D7CF2091D00530918E
:10225000D105232B41F420910401309105013093E5
:10226000D1052093D0052091020130910301211561
:10227000310541F42DB73EB7409106015091070159
:10228000241B350BE091D005F091D105E217F3073F
:10229000A0F42E1B3F0B2817390778F0AC014E5FD6
:1022A0005F4F2417350748F04E0F5F1F5093D1053D
:1022B0004093D005819391939FCFF0E0E0E09CCFD5
:1022C000CF93DF930097E9F0FC01329713821282DB
:1022D000A091D205B091D305ED0130E020E0109738
:1022E000A1F420813181820F931F2091D00530917C
:1022F000D1052817390709F061C0F093D105E093A3
:10230000D005DF91CF910895EA01CE17DF07E8F5F8
:102310004A815B819E0141155105B1F7E901FB83BB
:10232000EA8349915991C40FD51FEC17FD0761F459
:10233000808191810296840F951FE901998388839A
:10234000828193819B838A83F0E0E0E012968D91F5
:102350009C9113970097B9F52D913C911197CD0160
:102360000296820F931F2091D0053091D105281736
:10237000390739F6309751F51092D3051092D205EE
:10238000B093D105A093D005BCCFD383C283408145
:102390005181840F951FC817D90761F44E5F5F4FB5
:1023A00088819981480F591F518340838A819B817D
:1023B000938382832115310509F0B0CFF093D305C3
:1023C000E093D2059ECFFD01DC01C0CF13821282C3
:1023D000D7CFB0E0A0E0EFEEF1E10C94650E8C01F8
:1023E000009751F4CB010E94C4108C01C801CDB7F5
:1023F000DEB7E0E10C94810EFC01E60FF71F9C01B3
:1024000022503109E217F30708F49DC0D901CD919C
:10241000DC911197C617D70798F0C530D10530F376
:10242000CE0104978617970708F3C61BD70B229790
:10243000C193D1936D937C93CF010E946011D6CF4D
:102440005B01AC1ABD0A4C018C0E9D1EA091D205F9
:10245000B091D305512C412CF12CE12C109731F582
:102460008091D0059091D1058815990509F05CC03F
:102470004616570608F058C080910201909103015A
:10248000009741F48DB79EB7409106015091070126
:10249000841B950BE817F90708F055C0F093D10598
:1024A000E093D005F90171836083A0CF8D919C9159
:1024B000119712966C90129713967C901397A8150B
:1024C000B90559F56C0142E0C40ED11CCA14DB04F5
:1024D00020F1AC014A195B09DA011296159780F0D8
:1024E0006282738251834083D9016D937C93E1149E
:1024F000F10471F0D7011396FC93EE93129776CF07
:1025000022968C0F9D1FF90191838083F301EFCFF9
:10251000F093D305E093D20569CF4816590608F425
:102520002C017D01D3019ACFCB010E94C4107C0104
:10253000009749F0AE01B8010E94A612C8010E949E
:102540006011870153CF10E000E050CFFB01DC01A8
:1025500002C001900D9241505040D8F70895FB0100
:10256000DC0101900D920020E1F7089510E0C6E72C
:10257000D0E004C0FE010E94CB0E2196C737D107E0
:06258000C9F7F894FFCF3B
:1025860080FF0000D4058000000000003403B00383
:1025960021032403270389028B028D028F029202F4
:1025A600950298029B029E02A102E903A402A702D9
:1025B600AA02AD02B002B302B602B902BC02BF0261
:1025C600C202C502C8025903CA025D03CD026103F5
:1025D600D002D302D602D902DC02AE03B203B6039E
:1025E6008D02DF02E202E502E802EB026502EE027C
:1025F600F102F302F602F902FC02FF0202030503EE
:1026060008030B030E03C8021103140317031A036E
:102616001D0320032303260329032C032F03310361
:10262600340337033A033D034003440348034C0392
:102636005003540358035C036003640368036C038C
:102646007003720376037A037E03820386038A038A
:102656008E03920396038D0298039C03A003A403A2
:10266600A703AA03AD03B103B503B903BD03C103B1
:102676008D02C503C803CB03CE03D103D403D7030E
:10268600DA03DC03DF03E203E503E8032A032D0391
:10269600000000009402F1012102E1025202300220
:1026A600440200000000BA00F1011E02B900160142
:1026B6002C01A100000000003403250300000000E7
:1026C6003403E3039D030000000034030A04000002
:1026D60000003403C7030000000034031B046B6FC3
:1026E6006E6E6974697761002D2D2D2D2D2D205369
:1026F6006574757020646F6E65202D2D2D2D2D2D22
:102706002D000D0A000D0024006E006D0027006BE1
:1027160061006B69006B75006B65006B6F00736120
:1027260000736900736500736F007461007469005B
:10273600747500746500746F006E61006E69006EDA
:1027460075006E65006E6F002F0068690068650091
:102756006D61006D69006D75006D65006D6F0072CD
:102766006100726900727500726500726F00776FA2
:10277600003F00676100676900677500676500676D
:102786006F007A61007A69007A75007A65007A6F5F
:1027960000646100646900647500646500646F002C
:1027A600626100626900627500626500626F002CFA
:1027B60000706100706900707500706500706F00D0
:1027C6006B7961006B7975006B796F0073686100D6
:1027D6007368750073686F006368610063687500ED
:1027E60063686F006E7961006E7975006E796F00AF
:1027F6002B00687961006879750068796F006D79DA
:1028060061006D7975006D796F007279610072797A
:10281600750072796F003B00677961006779750012
:1028260067796F006A61006A75006A6F0062796194
:10283600006279750062796F007079610070797550
:102846000070796F007665007769007765007661BC
:1028560000766900767500766F002E006661006668
:0C2866006900666500666F007473750001
:00000001FF
